:020000040800F2
:10000000000003202D0800087D0800087D08000876
:100010007D0800087D0800087D0800080000000039
:100020000000000000000000000000007D08000843
:100030007D080008000000007D0800087D08000819
:100040007D0800087D0800087D0800087D0800087C
:100050007D0800087D0800087D0800087D0800086C
:100060007D0800087D0800087D0800087D0800085C
:100070007D0800087D0800087D0800087D0800084C
:100080007D0800087D0800087D0800087D0800083C
:100090007D0800087D0800087D0800087D0800082C
:1000A0007D0800087D0800087D0800087D0800081C
:1000B0007D0800087D0800087D0800087D0800080C
:1000C0007D0800087D0800087D0800087D080008FC
:1000D0007D0800087D0800087D0800087D080008EC
:1000E0007D0800087D0800087D0800087D080008DC
:1000F0007D0800087D0800087D0800087D080008CC
:100100007D0800087D0800087D0800087D080008BB
:100110007D0800087D0800087D0800087D080008AB
:100120007D0800087D0800087D0800087D0800089B
:100130007D0800087D0800087D0800087D0800088B
:100140007D0800087D0800087D0800087D0800087B
:100150007D0800087D0800087D0800087D0800086B
:100160007D0800087D0800087D0800087D0800085B
:100170007D0800087D0800087D08000800000000D8
:100180007D0800087D0800087D0800087D0800083B
:100190007D0800087D0800087D0800087D0800082B
:0C01A0007D0800087D0800087D080008AC
:1001AC0010B5054C237833B9044B13B10448AFF3A5
:1001BC0000800123237010BD04000020000000000B
:1001CC00C808000808B5034B1BB103490348AFF33B
:1001DC00008008BD0000000008000020C8080008CE
:1001EC00034AD2F8883043F47003C2F88830704761
:1001FC0000ED00E0104A136801331360B3F5FA7F89
:10020C0013D3134600221A600C4B1B786BB10C4BAA
:10021C001B785BB102F1804202F5013280219161C1
:10022C00B3FA83F35B09064A13707047054A4FF41F
:10023C0000019161F4E700BF240000202800002099
:10024C00200000200004024010B5214A137801332D
:10025C00DBB213701378DBB2062B02D913460122E2
:10026C001A7000241B4B1C701B4B01221A7012E0DD
:10027C00072000F093FA164B1B78033B01209840A3
:10028C000138C0B200F0AAFA002000F087FA002072
:10029C0000F0A4FA0134022C11DC0D4B1B78DBB2FC
:1002AC00032BE5D80A4B1B78DBB2012098400138B0
:1002BC00C0B200F073FA002000F090FAE4E7064BAD
:1002CC0000221A70054B4FF400029A6110BD00BF5A
:1002DC00010000202A000020280000200004024019
:1002EC0008B59B4B80229A614FF400029A61994B9E
:1002FC001B78DBB2062B27D0964B1B78DBB2052B79
:10030C0039D0944B1B78DBB2042B5BD0914B1B7810
:10031C00DBB2032B7DD08F4B1B78DBB2022B00F0B2
:10032C009F808C4B1B78DBB2012B19D18A4B1B782D
:10033C00DBB2062B14D8DFE813F0C500CF00D900D0
:10034C00E300ED00F7000101834B1B784BB907204C
:10035C0000F024FA072000F041FA7F4B01221A70BA
:10036C0008BD002000F01AFA002000F037FA7A4B92
:10037C0000221A70F4E7784B1B78DBB2012B0DD0FE
:10038C00022B15D0002BEBD1072000F007FA03202D
:10039C0000F024FA704B01221A70E1E7072000F0FC
:1003AC00FDF9072000F01AFA6B4B02221A70D7E7FE
:1003BC00002000F0F3F9002000F010FA664B002248
:1003CC001A70CDE7644B1B78DBB2012B0DD0022BDE
:1003DC0015D0002BC4D1072000F0E0F9012000F06B
:1003EC00FDF95D4B01221A70BAE7072000F0D6F92F
:1003FC00072000F0F3F9584B02221A70B0E70020E6
:10040C0000F0CCF9002000F0E9F9534B00221A70EF
:10041C00A6E7514B1B78DBB2012B0DD0022B15D06C
:10042C00002B9DD1072000F0B9F9002000F0D6F97F
:10043C00494B01221A7093E7072000F0AFF907200F
:10044C0000F0CCF9444B02221A7089E7002000F02E
:10045C00A5F9002000F0C2F93F4B00221A707FE78B
:10046C003D4B1B78DBB2032B3FF67AAFDFE803F092
:10047C00020C1620032000F091F9002000F0AEF9D8
:10048C00354B01221A706BE7072000F087F9012029
:10049C0000F0A4F9304B02221A7061E7072000F03B
:1004AC007DF9072000F09AF92B4B03221A7057E7BD
:1004BC00002000F073F9002000F090F9264B002288
:1004CC001A704DE7012000F069F9002000F086F960
:1004DC00214B01221A7043E7032000F05FF9002042
:1004EC0000F07CF91C4B02221A7039E7072000F04F
:1004FC0055F9002000F072F9174B03221A702FE700
:10050C00072000F04BF9012000F068F9124B04228F
:10051C001A7025E7072000F041F9032000F05EF97E
:10052C000D4B05221A701BE7072000F037F9072046
:10053C0000F054F9084B06221A7011E7002000F065
:10054C002DF9002000F04AF9034B00221A7007E73E
:10055C0000040240010000202A00002038B500F001
:10056C003BF800F075F8194B802199614FF40002AB
:10057C009A6199619A61012000F010F9002000F055
:10058C000DF909E000F0F6F898B9FFF75DFE10E000
:10059C000F4B1D700F4B1C7000F0ECF8054600F073
:1005AC00F3F80446FFF726FE094B1B780BB1002D20
:1005BC00E8D0084B1B78002BEAD0002CE8D100F0D7
:1005CC00E3F80028E4D1FFF78BFEE1E700040240DA
:1005DC0029000020000000201A4A136843F48033DD
:1005EC001360184B1B6813F4003FFAD0154B164AD6
:1005FC005A601A6842F080721A60124B1B6813F032
:10060C00007FFAD0114B40F205621A60A3F58063AB
:10061C009A689A609A6842F4A0529A609A6842F476
:10062C0000429A609A6822F003029A609A6842F03B
:10063C0002029A60034B9B6803F00C03082BF9D160
:10064C00704700BF0038024008544007003C02408D
:10065C00424B1A6B42F002021A631A6B42F004020C
:10066C001A631A6B42F001021A631A6B42F04002D1
:10067C001A633B4A136823F003031360136843F0B7
:10068C0001031360136823F440431360136843F4AD
:10069C0080431360136823F040531360136843F0D6
:1006AC0080531360536823F4814323F00103536098
:1006BC0093682C490B40936090682B4B03439360D9
:1006CC00D3680B40D360294B196821F44011196091
:1006DC00196841F480111960196821F440011960FE
:1006EC00196841F480011960196821F04071196092
:1006FC00196841F080711960596821F4E051596012
:10070C00996821F07C719960996841F02871996021
:10071C00D96821F07C71D960154991614FF0E05294
:10072C009A6103F580531A6822F0C0021A60DA68E5
:10073C0022F0C002DA60DA6842F04002DA60A3F517
:10074C00C0531A6822F003021A60DA6822F003021E
:10075C00DA60DA6842F00102DA6070470038024071
:10076C0000040240FC3FFFCF028000200008024042
:10077C0000008140034B1B6913F0080F0CBF0120D4
:10078C000020704700180240034B1B6913F0010F47
:10079C000CBF0120002070470000024010F0010F38
:1007AC0010D00022012310F0020F0ED043F0800372
:1007BC0010F0040F0CD043F4804343EA0243064A82
:1007CC009361704701220023EDE742F08002EFE7CE
:1007DC0042F48042F1E700BF0004024010F0010F28
:1007EC0011D000224FF4806310F0020F0FD043F4AD
:1007FC00006310F0040F0DD043F4805343EA02431E
:10080C00064A936170474FF480620023ECE742F490
:10081C000062EEE742F48052F0E700BF00080240AD
:10082C00DFF834D00D480E490E4A002302E0D458AC
:10083C00C4500433C4188C42F9D30B4A0B4C00231C
:10084C0001E013600432A242FBD3FFF7C9FC00F0B5
:10085C0011F8FFF783FE7047000003200000002012
:10086C0004000020E8080008040000202C000020F0
:10087C00FEE7000070B50D4D0D4C641BA410002656
:10088C00A64209D10B4D0C4C00F018F8641BA410B7
:10089C000026A64205D170BD55F8043B9847013699
:1008AC00EEE755F8043B98470136F2E7E0080008FC
:1008BC00E0080008E0080008E4080008F8B500BFEC
:1008CC00F8BC08BC9E467047F8B500BFF8BC08BC25
:0408DC009E4670477D
:0408E000D10100083A
:0408E400AD0100085A
:0408E800010100000A
:040000050800082DBA
:00000001FF
